{
  "_format": "hh-sol-artifact-1",
  "contractName": "RISHOTICS",
  "sourceName": "contracts/RISHOTICS.sol",
  "abi": [
    {
      "inputs": [],
      "stateMutability": "nonpayable",
      "type": "constructor"
    },
    {
      "anonymous": false,
      "inputs": [
        {
          "indexed": true,
          "internalType": "address",
          "name": "owner",
          "type": "address"
        },
        {
          "indexed": true,
          "internalType": "address",
          "name": "approved",
          "type": "address"
        },
        {
          "indexed": true,
          "internalType": "uint256",
          "name": "tokenId",
          "type": "uint256"
        }
      ],
      "name": "Approval",
      "type": "event"
    },
    {
      "anonymous": false,
      "inputs": [
        {
          "indexed": true,
          "internalType": "address",
          "name": "owner",
          "type": "address"
        },
        {
          "indexed": true,
          "internalType": "address",
          "name": "operator",
          "type": "address"
        },
        {
          "indexed": false,
          "internalType": "bool",
          "name": "approved",
          "type": "bool"
        }
      ],
      "name": "ApprovalForAll",
      "type": "event"
    },
    {
      "anonymous": false,
      "inputs": [
        {
          "indexed": true,
          "internalType": "address",
          "name": "previousOwner",
          "type": "address"
        },
        {
          "indexed": true,
          "internalType": "address",
          "name": "newOwner",
          "type": "address"
        }
      ],
      "name": "OwnershipTransferred",
      "type": "event"
    },
    {
      "anonymous": false,
      "inputs": [
        {
          "indexed": true,
          "internalType": "address",
          "name": "from",
          "type": "address"
        },
        {
          "indexed": true,
          "internalType": "address",
          "name": "to",
          "type": "address"
        },
        {
          "indexed": true,
          "internalType": "uint256",
          "name": "tokenId",
          "type": "uint256"
        }
      ],
      "name": "Transfer",
      "type": "event"
    },
    {
      "inputs": [
        {
          "internalType": "address",
          "name": "to",
          "type": "address"
        },
        {
          "internalType": "uint256",
          "name": "tokenId",
          "type": "uint256"
        }
      ],
      "name": "approve",
      "outputs": [],
      "stateMutability": "nonpayable",
      "type": "function"
    },
    {
      "inputs": [
        {
          "internalType": "address",
          "name": "owner",
          "type": "address"
        }
      ],
      "name": "balanceOf",
      "outputs": [
        {
          "internalType": "uint256",
          "name": "",
          "type": "uint256"
        }
      ],
      "stateMutability": "view",
      "type": "function"
    },
    {
      "inputs": [
        {
          "internalType": "uint256",
          "name": "tokenId",
          "type": "uint256"
        }
      ],
      "name": "getApproved",
      "outputs": [
        {
          "internalType": "address",
          "name": "",
          "type": "address"
        }
      ],
      "stateMutability": "view",
      "type": "function"
    },
    {
      "inputs": [
        {
          "internalType": "address",
          "name": "owner",
          "type": "address"
        },
        {
          "internalType": "address",
          "name": "operator",
          "type": "address"
        }
      ],
      "name": "isApprovedForAll",
      "outputs": [
        {
          "internalType": "bool",
          "name": "",
          "type": "bool"
        }
      ],
      "stateMutability": "view",
      "type": "function"
    },
    {
      "inputs": [
        {
          "internalType": "address",
          "name": "user",
          "type": "address"
        },
        {
          "internalType": "string",
          "name": "_tokenURI",
          "type": "string"
        }
      ],
      "name": "mint",
      "outputs": [
        {
          "internalType": "uint256",
          "name": "",
          "type": "uint256"
        }
      ],
      "stateMutability": "nonpayable",
      "type": "function"
    },
    {
      "inputs": [],
      "name": "name",
      "outputs": [
        {
          "internalType": "string",
          "name": "",
          "type": "string"
        }
      ],
      "stateMutability": "view",
      "type": "function"
    },
    {
      "inputs": [],
      "name": "owner",
      "outputs": [
        {
          "internalType": "address",
          "name": "",
          "type": "address"
        }
      ],
      "stateMutability": "view",
      "type": "function"
    },
    {
      "inputs": [
        {
          "internalType": "uint256",
          "name": "tokenId",
          "type": "uint256"
        }
      ],
      "name": "ownerOf",
      "outputs": [
        {
          "internalType": "address",
          "name": "",
          "type": "address"
        }
      ],
      "stateMutability": "view",
      "type": "function"
    },
    {
      "inputs": [],
      "name": "renounceOwnership",
      "outputs": [],
      "stateMutability": "nonpayable",
      "type": "function"
    },
    {
      "inputs": [
        {
          "internalType": "address",
          "name": "from",
          "type": "address"
        },
        {
          "internalType": "address",
          "name": "to",
          "type": "address"
        },
        {
          "internalType": "uint256",
          "name": "tokenId",
          "type": "uint256"
        }
      ],
      "name": "safeTransferFrom",
      "outputs": [],
      "stateMutability": "nonpayable",
      "type": "function"
    },
    {
      "inputs": [
        {
          "internalType": "address",
          "name": "from",
          "type": "address"
        },
        {
          "internalType": "address",
          "name": "to",
          "type": "address"
        },
        {
          "internalType": "uint256",
          "name": "tokenId",
          "type": "uint256"
        },
        {
          "internalType": "bytes",
          "name": "_data",
          "type": "bytes"
        }
      ],
      "name": "safeTransferFrom",
      "outputs": [],
      "stateMutability": "nonpayable",
      "type": "function"
    },
    {
      "inputs": [
        {
          "internalType": "address",
          "name": "operator",
          "type": "address"
        },
        {
          "internalType": "bool",
          "name": "approved",
          "type": "bool"
        }
      ],
      "name": "setApprovalForAll",
      "outputs": [],
      "stateMutability": "nonpayable",
      "type": "function"
    },
    {
      "inputs": [
        {
          "internalType": "bytes4",
          "name": "interfaceId",
          "type": "bytes4"
        }
      ],
      "name": "supportsInterface",
      "outputs": [
        {
          "internalType": "bool",
          "name": "",
          "type": "bool"
        }
      ],
      "stateMutability": "view",
      "type": "function"
    },
    {
      "inputs": [],
      "name": "symbol",
      "outputs": [
        {
          "internalType": "string",
          "name": "",
          "type": "string"
        }
      ],
      "stateMutability": "view",
      "type": "function"
    },
    {
      "inputs": [
        {
          "internalType": "uint256",
          "name": "tokenId",
          "type": "uint256"
        }
      ],
      "name": "tokenURI",
      "outputs": [
        {
          "internalType": "string",
          "name": "",
          "type": "string"
        }
      ],
      "stateMutability": "view",
      "type": "function"
    },
    {
      "inputs": [
        {
          "internalType": "address",
          "name": "from",
          "type": "address"
        },
        {
          "internalType": "address",
          "name": "to",
          "type": "address"
        },
        {
          "internalType": "uint256",
          "name": "tokenId",
          "type": "uint256"
        }
      ],
      "name": "transferFrom",
      "outputs": [],
      "stateMutability": "nonpayable",
      "type": "function"
    },
    {
      "inputs": [
        {
          "internalType": "address",
          "name": "newOwner",
          "type": "address"
        }
      ],
      "name": "transferOwnership",
      "outputs": [],
      "stateMutability": "nonpayable",
      "type": "function"
    }
  ],
  "bytecode": "0x60806040523480156200001157600080fd5b506040805180820182526009815268526973686f7469637360b81b6020808301918252835180850190945260048452630a492a6960e31b9084015281519192916200005f91600091620000ee565b50805162000075906001906020840190620000ee565b505050620000926200008c6200009860201b60201c565b6200009c565b620001d1565b3390565b600780546001600160a01b038381166001600160a01b0319831681179093556040519116919082907f8be0079c531659141344cd1fd0a4f28419497f9722a3daafe3b4186f6b6457e090600090a35050565b828054620000fc9062000194565b90600052602060002090601f0160209004810192826200012057600085556200016b565b82601f106200013b57805160ff19168380011785556200016b565b828001600101855582156200016b579182015b828111156200016b5782518255916020019190600101906200014e565b50620001799291506200017d565b5090565b5b808211156200017957600081556001016200017e565b600181811c90821680620001a957607f821691505b60208210811415620001cb57634e487b7160e01b600052602260045260246000fd5b50919050565b6118bc80620001e16000396000f3fe608060405234801561001057600080fd5b506004361061010b5760003560e01c8063715018a6116100a2578063b88d4fde11610071578063b88d4fde1461021b578063c87b56dd1461022e578063d0def52114610241578063e985e9c514610254578063f2fde38b1461029057600080fd5b8063715018a6146101e75780638da5cb5b146101ef57806395d89b4114610200578063a22cb4651461020857600080fd5b806323b872dd116100de57806323b872dd1461018d57806342842e0e146101a05780636352211e146101b357806370a08231146101c657600080fd5b806301ffc9a71461011057806306fdde0314610138578063081812fc1461014d578063095ea7b314610178575b600080fd5b61012361011e366004611582565b6102a3565b60405190151581526020015b60405180910390f35b6101406102f5565b60405161012f919061166a565b61016061015b3660046115ba565b610387565b6040516001600160a01b03909116815260200161012f565b61018b610186366004611559565b610414565b005b61018b61019b36600461140c565b61052a565b61018b6101ae36600461140c565b61055b565b6101606101c13660046115ba565b610576565b6101d96101d43660046113c0565b6105ed565b60405190815260200161012f565b61018b610674565b6007546001600160a01b0316610160565b6101406106aa565b61018b6102163660046114c0565b6106b9565b61018b610229366004611447565b6106c8565b61014061023c3660046115ba565b610700565b6101d961024f3660046114fa565b610877565b6101236102623660046113da565b6001600160a01b03918216600090815260056020908152604080832093909416825291909152205460ff1690565b61018b61029e3660046113c0565b6108da565b60006001600160e01b031982166380ac58cd60e01b14806102d457506001600160e01b03198216635b5e139f60e01b145b806102ef57506301ffc9a760e01b6001600160e01b03198316145b92915050565b606060008054610304906117c4565b80601f0160208091040260200160405190810160405280929190818152602001828054610330906117c4565b801561037d5780601f106103525761010080835404028352916020019161037d565b820191906000526020600020905b81548152906001019060200180831161036057829003601f168201915b5050505050905090565b600061039282610975565b6103f85760405162461bcd60e51b815260206004820152602c60248201527f4552433732313a20617070726f76656420717565727920666f72206e6f6e657860448201526b34b9ba32b73a103a37b5b2b760a11b60648201526084015b60405180910390fd5b506000908152600460205260409020546001600160a01b031690565b600061041f82610576565b9050806001600160a01b0316836001600160a01b0316141561048d5760405162461bcd60e51b815260206004820152602160248201527f4552433732313a20617070726f76616c20746f2063757272656e74206f776e656044820152603960f91b60648201526084016103ef565b336001600160a01b03821614806104a957506104a98133610262565b61051b5760405162461bcd60e51b815260206004820152603860248201527f4552433732313a20617070726f76652063616c6c6572206973206e6f74206f7760448201527f6e6572206e6f7220617070726f76656420666f7220616c6c000000000000000060648201526084016103ef565b6105258383610992565b505050565b6105343382610a00565b6105505760405162461bcd60e51b81526004016103ef90611704565b610525838383610ae9565b610525838383604051806020016040528060008152506106c8565b6000818152600260205260408120546001600160a01b0316806102ef5760405162461bcd60e51b815260206004820152602960248201527f4552433732313a206f776e657220717565727920666f72206e6f6e657869737460448201526832b73a103a37b5b2b760b91b60648201526084016103ef565b60006001600160a01b0382166106585760405162461bcd60e51b815260206004820152602a60248201527f4552433732313a2062616c616e636520717565727920666f7220746865207a65604482015269726f206164647265737360b01b60648201526084016103ef565b506001600160a01b031660009081526003602052604090205490565b6007546001600160a01b0316331461069e5760405162461bcd60e51b81526004016103ef906116cf565b6106a86000610c85565b565b606060018054610304906117c4565b6106c4338383610cd7565b5050565b6106d23383610a00565b6106ee5760405162461bcd60e51b81526004016103ef90611704565b6106fa84848484610da6565b50505050565b606061070b82610975565b6107715760405162461bcd60e51b815260206004820152603160248201527f45524337323155524953746f726167653a2055524920717565727920666f72206044820152703737b732bc34b9ba32b73a103a37b5b2b760791b60648201526084016103ef565b6000828152600660205260408120805461078a906117c4565b80601f01602080910402602001604051908101604052809291908181526020018280546107b6906117c4565b80156108035780601f106107d857610100808354040283529160200191610803565b820191906000526020600020905b8154815290600101906020018083116107e657829003601f168201915b50505050509050600061082160408051602081019091526000815290565b9050805160001415610834575092915050565b81511561086657808260405160200161084e9291906115fe565b60405160208183030381529060405292505050919050565b61086f84610dd9565b949350505050565b6007546000906001600160a01b031633146108a45760405162461bcd60e51b81526004016103ef906116cf565b60006108af60085490565b90506108bb8482610eb0565b6108c58184610fe3565b6108d3600880546001019055565b9392505050565b6007546001600160a01b031633146109045760405162461bcd60e51b81526004016103ef906116cf565b6001600160a01b0381166109695760405162461bcd60e51b815260206004820152602660248201527f4f776e61626c653a206e6577206f776e657220697320746865207a65726f206160448201526564647265737360d01b60648201526084016103ef565b61097281610c85565b50565b6000908152600260205260409020546001600160a01b0316151590565b600081815260046020526040902080546001600160a01b0319166001600160a01b03841690811790915581906109c782610576565b6001600160a01b03167f8c5be1e5ebec7d5bd14f71427d1e84f3dd0314c0f7b2291e5b200ac8c7c3b92560405160405180910390a45050565b6000610a0b82610975565b610a6c5760405162461bcd60e51b815260206004820152602c60248201527f4552433732313a206f70657261746f7220717565727920666f72206e6f6e657860448201526b34b9ba32b73a103a37b5b2b760a11b60648201526084016103ef565b6000610a7783610576565b9050806001600160a01b0316846001600160a01b03161480610abe57506001600160a01b0380821660009081526005602090815260408083209388168352929052205460ff165b8061086f5750836001600160a01b0316610ad784610387565b6001600160a01b031614949350505050565b826001600160a01b0316610afc82610576565b6001600160a01b031614610b605760405162461bcd60e51b815260206004820152602560248201527f4552433732313a207472616e736665722066726f6d20696e636f72726563742060448201526437bbb732b960d91b60648201526084016103ef565b6001600160a01b038216610bc25760405162461bcd60e51b8152602060048201526024808201527f4552433732313a207472616e7366657220746f20746865207a65726f206164646044820152637265737360e01b60648201526084016103ef565b610bcd600082610992565b6001600160a01b0383166000908152600360205260408120805460019290610bf6908490611781565b90915550506001600160a01b0382166000908152600360205260408120805460019290610c24908490611755565b909155505060008181526002602052604080822080546001600160a01b0319166001600160a01b0386811691821790925591518493918716917fddf252ad1be2c89b69c2b068fc378daa952ba7f163c4a11628f55a4df523b3ef91a4505050565b600780546001600160a01b038381166001600160a01b0319831681179093556040519116919082907f8be0079c531659141344cd1fd0a4f28419497f9722a3daafe3b4186f6b6457e090600090a35050565b816001600160a01b0316836001600160a01b03161415610d395760405162461bcd60e51b815260206004820152601960248201527f4552433732313a20617070726f766520746f2063616c6c65720000000000000060448201526064016103ef565b6001600160a01b03838116600081815260056020908152604080832094871680845294825291829020805460ff191686151590811790915591519182527f17307eab39ab6107e8899845ad3d59bd9653f200f220920489ca2b5937696c31910160405180910390a3505050565b610db1848484610ae9565b610dbd8484848461106e565b6106fa5760405162461bcd60e51b81526004016103ef9061167d565b6060610de482610975565b610e485760405162461bcd60e51b815260206004820152602f60248201527f4552433732314d657461646174613a2055524920717565727920666f72206e6f60448201526e3732bc34b9ba32b73a103a37b5b2b760891b60648201526084016103ef565b6000610e5f60408051602081019091526000815290565b90506000815111610e7f57604051806020016040528060008152506108d3565b80610e898461117b565b604051602001610e9a9291906115fe565b6040516020818303038152906040529392505050565b6001600160a01b038216610f065760405162461bcd60e51b815260206004820181905260248201527f4552433732313a206d696e7420746f20746865207a65726f206164647265737360448201526064016103ef565b610f0f81610975565b15610f5c5760405162461bcd60e51b815260206004820152601c60248201527f4552433732313a20746f6b656e20616c7265616479206d696e7465640000000060448201526064016103ef565b6001600160a01b0382166000908152600360205260408120805460019290610f85908490611755565b909155505060008181526002602052604080822080546001600160a01b0319166001600160a01b03861690811790915590518392907fddf252ad1be2c89b69c2b068fc378daa952ba7f163c4a11628f55a4df523b3ef908290a45050565b610fec82610975565b61104f5760405162461bcd60e51b815260206004820152602e60248201527f45524337323155524953746f726167653a2055524920736574206f66206e6f6e60448201526d32bc34b9ba32b73a103a37b5b2b760911b60648201526084016103ef565b6000828152600660209081526040909120825161052592840190611295565b60006001600160a01b0384163b1561117057604051630a85bd0160e11b81526001600160a01b0385169063150b7a02906110b290339089908890889060040161162d565b602060405180830381600087803b1580156110cc57600080fd5b505af19250505080156110fc575060408051601f3d908101601f191682019092526110f99181019061159e565b60015b611156573d80801561112a576040519150601f19603f3d011682016040523d82523d6000602084013e61112f565b606091505b50805161114e5760405162461bcd60e51b81526004016103ef9061167d565b805181602001fd5b6001600160e01b031916630a85bd0160e11b14905061086f565b506001949350505050565b60608161119f5750506040805180820190915260018152600360fc1b602082015290565b8160005b81156111c957806111b3816117ff565b91506111c29050600a8361176d565b91506111a3565b60008167ffffffffffffffff8111156111f257634e487b7160e01b600052604160045260246000fd5b6040519080825280601f01601f19166020018201604052801561121c576020820181803683370190505b5090505b841561086f57611231600183611781565b915061123e600a8661181a565b611249906030611755565b60f81b81838151811061126c57634e487b7160e01b600052603260045260246000fd5b60200101906001600160f81b031916908160001a90535061128e600a8661176d565b9450611220565b8280546112a1906117c4565b90600052602060002090601f0160209004810192826112c35760008555611309565b82601f106112dc57805160ff1916838001178555611309565b82800160010185558215611309579182015b828111156113095782518255916020019190600101906112ee565b50611315929150611319565b5090565b5b80821115611315576000815560010161131a565b600067ffffffffffffffff808411156113495761134961185a565b604051601f8501601f19908116603f011681019082821181831017156113715761137161185a565b8160405280935085815286868601111561138a57600080fd5b858560208301376000602087830101525050509392505050565b80356001600160a01b03811681146113bb57600080fd5b919050565b6000602082840312156113d1578081fd5b6108d3826113a4565b600080604083850312156113ec578081fd5b6113f5836113a4565b9150611403602084016113a4565b90509250929050565b600080600060608486031215611420578081fd5b611429846113a4565b9250611437602085016113a4565b9150604084013590509250925092565b6000806000806080858703121561145c578081fd5b611465856113a4565b9350611473602086016113a4565b925060408501359150606085013567ffffffffffffffff811115611495578182fd5b8501601f810187136114a5578182fd5b6114b48782356020840161132e565b91505092959194509250565b600080604083850312156114d2578182fd5b6114db836113a4565b9150602083013580151581146114ef578182fd5b809150509250929050565b6000806040838503121561150c578182fd5b611515836113a4565b9150602083013567ffffffffffffffff811115611530578182fd5b8301601f81018513611540578182fd5b61154f8582356020840161132e565b9150509250929050565b6000806040838503121561156b578182fd5b611574836113a4565b946020939093013593505050565b600060208284031215611593578081fd5b81356108d381611870565b6000602082840312156115af578081fd5b81516108d381611870565b6000602082840312156115cb578081fd5b5035919050565b600081518084526115ea816020860160208601611798565b601f01601f19169290920160200192915050565b60008351611610818460208801611798565b835190830190611624818360208801611798565b01949350505050565b6001600160a01b0385811682528416602082015260408101839052608060608201819052600090611660908301846115d2565b9695505050505050565b6020815260006108d360208301846115d2565b60208082526032908201527f4552433732313a207472616e7366657220746f206e6f6e20455243373231526560408201527131b2b4bb32b91034b6b83632b6b2b73a32b960711b606082015260800190565b6020808252818101527f4f776e61626c653a2063616c6c6572206973206e6f7420746865206f776e6572604082015260600190565b60208082526031908201527f4552433732313a207472616e736665722063616c6c6572206973206e6f74206f6040820152701ddb995c881b9bdc88185c1c1c9bdd9959607a1b606082015260800190565b600082198211156117685761176861182e565b500190565b60008261177c5761177c611844565b500490565b6000828210156117935761179361182e565b500390565b60005b838110156117b357818101518382015260200161179b565b838111156106fa5750506000910152565b600181811c908216806117d857607f821691505b602082108114156117f957634e487b7160e01b600052602260045260246000fd5b50919050565b60006000198214156118135761181361182e565b5060010190565b60008261182957611829611844565b500690565b634e487b7160e01b600052601160045260246000fd5b634e487b7160e01b600052601260045260246000fd5b634e487b7160e01b600052604160045260246000fd5b6001600160e01b03198116811461097257600080fdfea2646970667358221220271a044cae675b82009be44a6ea86aefbd3cdaae3f7e2e9e5962d3a7063a985664736f6c63430008040033",
  "linkReferences": {},
  "deployedLinkReferences": {}
}