{
  "_format": "hh-sol-artifact-1",
  "contractName": "Lending_platform",
  "sourceName": "contracts/Lending_platform.sol",
  "abi": [
    {
      "inputs": [
        {
          "internalType": "address",
          "name": "_rish_token",
          "type": "address"
        },
        {
          "internalType": "address",
          "name": "_usdc",
          "type": "address"
        },
        {
          "internalType": "uint8",
          "name": "_interestRate",
          "type": "uint8"
        },
        {
          "internalType": "uint8",
          "name": "_max_lendings",
          "type": "uint8"
        }
      ],
      "stateMutability": "nonpayable",
      "type": "constructor"
    },
    {
      "anonymous": false,
      "inputs": [
        {
          "indexed": false,
          "internalType": "address",
          "name": "user",
          "type": "address"
        },
        {
          "indexed": false,
          "internalType": "uint256",
          "name": "totalAmountPaid",
          "type": "uint256"
        }
      ],
      "name": "DefaultedNftSold",
      "type": "event"
    },
    {
      "anonymous": false,
      "inputs": [
        {
          "indexed": false,
          "internalType": "address",
          "name": "user",
          "type": "address"
        },
        {
          "indexed": false,
          "internalType": "uint256",
          "name": "amount",
          "type": "uint256"
        },
        {
          "indexed": false,
          "internalType": "uint256",
          "name": "timeLimit",
          "type": "uint256"
        },
        {
          "indexed": false,
          "internalType": "uint256",
          "name": "transactionID",
          "type": "uint256"
        }
      ],
      "name": "LendingDone",
      "type": "event"
    },
    {
      "anonymous": false,
      "inputs": [
        {
          "indexed": false,
          "internalType": "address",
          "name": "user",
          "type": "address"
        },
        {
          "indexed": false,
          "internalType": "uint256",
          "name": "totalAmountPaid",
          "type": "uint256"
        }
      ],
      "name": "LoanPaidBack",
      "type": "event"
    },
    {
      "anonymous": false,
      "inputs": [
        {
          "indexed": false,
          "internalType": "address",
          "name": "user",
          "type": "address"
        },
        {
          "indexed": false,
          "internalType": "uint256",
          "name": "remainingAmount",
          "type": "uint256"
        }
      ],
      "name": "RemainingUSDCTransferred",
      "type": "event"
    },
    {
      "inputs": [],
      "name": "MAX_HOURS_FOR_LOAN",
      "outputs": [
        {
          "internalType": "uint16",
          "name": "",
          "type": "uint16"
        }
      ],
      "stateMutability": "view",
      "type": "function"
    },
    {
      "inputs": [
        {
          "internalType": "uint256",
          "name": "transactionId",
          "type": "uint256"
        },
        {
          "internalType": "uint256",
          "name": "amount",
          "type": "uint256"
        }
      ],
      "name": "SellNftIfDefaulted",
      "outputs": [],
      "stateMutability": "nonpayable",
      "type": "function"
    },
    {
      "inputs": [
        {
          "internalType": "uint8",
          "name": "_newInterestRate",
          "type": "uint8"
        }
      ],
      "name": "changeInterestRate",
      "outputs": [],
      "stateMutability": "nonpayable",
      "type": "function"
    },
    {
      "inputs": [
        {
          "internalType": "uint256",
          "name": "timeToReturn",
          "type": "uint256"
        }
      ],
      "name": "convertToHours",
      "outputs": [
        {
          "internalType": "uint256",
          "name": "",
          "type": "uint256"
        }
      ],
      "stateMutability": "pure",
      "type": "function"
    },
    {
      "inputs": [
        {
          "internalType": "uint256",
          "name": "transactionId",
          "type": "uint256"
        }
      ],
      "name": "getInterest",
      "outputs": [
        {
          "internalType": "uint256",
          "name": "",
          "type": "uint256"
        }
      ],
      "stateMutability": "view",
      "type": "function"
    },
    {
      "inputs": [
        {
          "internalType": "uint256",
          "name": "transactionId",
          "type": "uint256"
        }
      ],
      "name": "getPricipalAmount",
      "outputs": [
        {
          "internalType": "uint256",
          "name": "",
          "type": "uint256"
        }
      ],
      "stateMutability": "view",
      "type": "function"
    },
    {
      "inputs": [
        {
          "internalType": "uint256",
          "name": "transactionId",
          "type": "uint256"
        }
      ],
      "name": "getTimeSpent",
      "outputs": [
        {
          "internalType": "uint256",
          "name": "",
          "type": "uint256"
        }
      ],
      "stateMutability": "view",
      "type": "function"
    },
    {
      "inputs": [
        {
          "internalType": "uint256",
          "name": "transactionId",
          "type": "uint256"
        }
      ],
      "name": "getTotalAmountToPay",
      "outputs": [
        {
          "internalType": "uint256",
          "name": "",
          "type": "uint256"
        }
      ],
      "stateMutability": "view",
      "type": "function"
    },
    {
      "inputs": [
        {
          "internalType": "uint256",
          "name": "transactionId",
          "type": "uint256"
        }
      ],
      "name": "getTransactionStatus",
      "outputs": [
        {
          "internalType": "bool",
          "name": "",
          "type": "bool"
        }
      ],
      "stateMutability": "view",
      "type": "function"
    },
    {
      "inputs": [],
      "name": "get_nft_price",
      "outputs": [
        {
          "internalType": "uint256",
          "name": "",
          "type": "uint256"
        }
      ],
      "stateMutability": "pure",
      "type": "function"
    },
    {
      "inputs": [
        {
          "internalType": "uint256",
          "name": "tokenId",
          "type": "uint256"
        },
        {
          "internalType": "uint256",
          "name": "amount",
          "type": "uint256"
        },
        {
          "internalType": "uint256",
          "name": "timeToReturnInHours",
          "type": "uint256"
        }
      ],
      "name": "lendUSDC",
      "outputs": [
        {
          "internalType": "uint256",
          "name": "",
          "type": "uint256"
        }
      ],
      "stateMutability": "nonpayable",
      "type": "function"
    },
    {
      "inputs": [
        {
          "internalType": "address",
          "name": "",
          "type": "address"
        },
        {
          "internalType": "address",
          "name": "",
          "type": "address"
        },
        {
          "internalType": "uint256",
          "name": "",
          "type": "uint256"
        },
        {
          "internalType": "bytes",
          "name": "",
          "type": "bytes"
        }
      ],
      "name": "onERC721Received",
      "outputs": [
        {
          "internalType": "bytes4",
          "name": "",
          "type": "bytes4"
        }
      ],
      "stateMutability": "nonpayable",
      "type": "function"
    },
    {
      "inputs": [
        {
          "internalType": "uint256",
          "name": "transactionId",
          "type": "uint256"
        },
        {
          "internalType": "uint256",
          "name": "amount",
          "type": "uint256"
        }
      ],
      "name": "payInterest",
      "outputs": [],
      "stateMutability": "nonpayable",
      "type": "function"
    },
    {
      "inputs": [],
      "name": "rish_token",
      "outputs": [
        {
          "internalType": "contract RISHOTICS",
          "name": "",
          "type": "address"
        }
      ],
      "stateMutability": "view",
      "type": "function"
    },
    {
      "inputs": [],
      "name": "usdc",
      "outputs": [
        {
          "internalType": "contract USDC",
          "name": "",
          "type": "address"
        }
      ],
      "stateMutability": "view",
      "type": "function"
    }
  ],
  "bytecode": "0x60e06040523480156200001157600080fd5b5060405162001a3a38038062001a3a8339810160408190526200003491620000da565b33606090811b60805284811b6001600160601b031990811660a0529084901b1660c0526001805460ff191660ff84161790556200007e6000620000a2602090811b6200103117901c565b6001805460ff9092166101000261ff00199092169190911790555062000136915050565b80546001019055565b80516001600160a01b0381168114620000c357600080fd5b919050565b805160ff81168114620000c357600080fd5b60008060008060808587031215620000f0578384fd5b620000fb85620000ab565b93506200010b60208601620000ab565b92506200011b60408601620000c8565b91506200012b60608601620000c8565b905092959194509250565b60805160601c60a05160601c60c05160601c611885620001b56000396000818161018d015281816104e4015281816108c8015281816111150152818161120001526112f1015260008181610228015281816103de015281816105e20152818161084e01528181611467015261150001526000610e3a01526118856000f3fe608060405234801561001057600080fd5b50600436106100f55760003560e01c80636bbc379d11610097578063bed2c0a811610066578063bed2c0a814610258578063e5fa37ed1461026b578063f190ef841461027e578063ff4ba23d1461029157600080fd5b80636bbc379d146101ed5780636be26b71146102105780636d24d27714610223578063bad6df231461024a57600080fd5b8063332e6f4e116100d3578063332e6f4e146101735780633e413bee146101885780635b112bb8146101c75780635fe2d689146101da57600080fd5b8063141a1416146100fa578063150b7a021461011b5780632b51438d14610152575b600080fd5b6101036102d081565b60405161ffff90911681526020015b60405180910390f35b6101396101293660046115ad565b630a85bd0160e11b949350505050565b6040516001600160e01b03199091168152602001610112565b6101656101603660046116f7565b6102a4565b604051908152602001610112565b6101866101813660046116d6565b610a29565b005b6101af7f000000000000000000000000000000000000000000000000000000000000000081565b6040516001600160a01b039091168152602001610112565b6101656101d53660046116a6565b610c64565b6101656101e83660046116a6565b610ca3565b6102006101fb3660046116a6565b610d0a565b6040519015158152602001610112565b61016561021e3660046116a6565b610d47565b6101af7f000000000000000000000000000000000000000000000000000000000000000081565b678ac7230489e80000610165565b6101656102663660046116a6565b610dcd565b6101656102793660046116a6565b610de1565b61018661028c366004611722565b610e2f565b61018661029f3660046116d6565b610ec9565b6001805460009133916102bf9190610100900460ff166117e8565b6001600160a01b03821660009081526003602052604090205460ff91909116108015906102fc57506001600160a01b038116600052600360205260015b6103825760405162461bcd60e51b815260206004820152604660248201527f4d6178204e756d626572206f66204c6f616e7320666f7220612075736572206560448201527f78686175737465642e20506c65617365207061796261636b206561726c696572606482015265206c6f616e7360d01b608482015260a4015b60405180910390fd5b336103c85760405162461bcd60e51b8152602060048201526016602482015275416464726573732063616e6e6f74206265207a65726f60501b6044820152606401610379565b6040516331a9108f60e11b8152600481018690527f00000000000000000000000000000000000000000000000000000000000000006001600160a01b031690636352211e9060240160206040518083038186803b15801561042857600080fd5b505afa15801561043c573d6000803e3d6000fd5b505050506040513d601f19601f820116820180604052508101906104609190611591565b6001600160a01b0316336001600160a01b0316146104cf5760405162461bcd60e51b815260206004820152602660248201527f43616c6c696e6720616464726573732073686f756c64206265206f776e6572206044820152651bd98813919560d21b6064820152608401610379565b6040516370a0823160e01b81523060048201527f00000000000000000000000000000000000000000000000000000000000000006001600160a01b0316906370a082319060240160206040518083038186803b15801561052e57600080fd5b505afa158015610542573d6000803e3d6000fd5b505050506040513d601f19601f8201168201806040525081019061056691906116be565b84106105c25760405162461bcd60e51b815260206004820152602560248201527f416d6f756e742073686f756c64206265206c657373207468616e204d41585f536044820152645550504c5960d81b6064820152608401610379565b60405163020604bf60e21b81526004810186905230906001600160a01b037f0000000000000000000000000000000000000000000000000000000000000000169063081812fc9060240160206040518083038186803b15801561062457600080fd5b505afa158015610638573d6000803e3d6000fd5b505050506040513d601f19601f8201168201806040525081019061065c9190611591565b6001600160a01b0316146106b25760405162461bcd60e51b815260206004820181905260248201527f417070726f76616c20666f72204e465420546f6b656e206e6f7420676976656e6044820152606401610379565b6102d083106107205760405162461bcd60e51b815260206004820152603460248201527f4475726174696f6e20666f722074616b696e67206c6f616e2073686f756c64206044820152736265206c657373207468616e203330206461797360601b6064820152608401610379565b678ac7230489e800006000610741600761073b84600a61103a565b9061104d565b9050858110156107b95760405162461bcd60e51b815260206004820152603860248201527f416d6f756e742061736b65642069732067726561746572207468616e2037302560448201527f2076616c7565206f6620636f6c6c61746572616c204e465400000000000000006064820152608401610379565b6000805480825260026020819052604090922080546001600160a01b03191633178155600181018a9055918201889055426003830155906107f987610dcd565b610803904261177a565b6004828101919091556005820188905560068201805460ff19166001179055604051632142170760e11b81523391810191909152306024820152604481018a90526001600160a01b037f000000000000000000000000000000000000000000000000000000000000000016906342842e0e90606401600060405180830381600087803b15801561089257600080fd5b505af11580156108a6573d6000803e3d6000fd5b505060405163a9059cbb60e01b8152336004820152602481018b9052600092507f00000000000000000000000000000000000000000000000000000000000000006001600160a01b0316915063a9059cbb90604401602060405180830381600087803b15801561091557600080fd5b505af1158015610929573d6000803e3d6000fd5b505050506040513d601f19601f8201168201806040525081019061094d9190611686565b9050806109965760405162461bcd60e51b8152602060048201526017602482015276151c985b9cd9995c881bd9881554d110c819985a5b1959604a1b6044820152606401610379565b336000908152600360205260409020546109b1906001611059565b336000818152600360209081526040918290209390935580519182529181018b9052908101899052606081018490527fa0d234e33a7e715170a5c34c14ee05ab5e27bcc55374b1618161bd0d1c42f34b9060800160405180910390a1610a1b600080546001019055565b509098975050505050505050565b8160008111610a4a5760405162461bcd60e51b815260040161037990611743565b60008311610a935760405162461bcd60e51b8152602060048201526016602482015275125b9d985b1a59081d1c985b9cd858dd1a5bdb88125160521b6044820152606401610379565b6000838152600260205260409020600401544211610b2e5760405162461bcd60e51b815260206004820152604c60248201527f4c6f616e206973206e6f742064656661756c7465642074696c6c206e6f772e5460448201527f68657265206973207374696c6c2074696d6520666f72206f776e657220746f2060648201526b3830bc903a3432903637b0b760a11b608482015260a401610379565b60008381526002602052604090206006015460ff16610bb55760405162461bcd60e51b815260206004820152603b60248201527f4c6f616e20697320616c726561647920706169642e2054686973204c656e642060448201527f5472616e73616374696f6e20697320616c7265616479206f76657200000000006064820152608401610379565b610bbf8383611065565b6000610bca84610de1565b60408051338152602081018390529192507fc2fb598eefb4e24c3f1446e719705764e2a1f2b658f100e0aa996c519e0e95f5910160405180910390a16000848152600260209081526040808320546001600160a01b031683526003909152902054610c36906001611585565b6000948552600260209081526040808720546001600160a01b03168752600390915290942093909355505050565b60008160008111610c875760405162461bcd60e51b815260040161037990611743565b6000838152600260208190526040909120015491505b50919050565b60008160008111610cc65760405162461bcd60e51b815260040161037990611743565b6000610cd184610d47565b60015460008681526002602081905260408220015492935091610d0191849161073b9160ff16908290606461103a565b95945050505050565b60008160008111610d2d5760405162461bcd60e51b815260040161037990611743565b505060009081526002602052604090206006015460ff1690565b60008160008111610d6a5760405162461bcd60e51b815260040161037990611743565b600083815260026020526040902060040154421015610db457600083815260026020526040902060030154610dad90610e1090610da790426117d1565b9061103a565b9150610c9d565b6000838152600260205260409020600501549150610c9d565b6000610ddb82610e1061104d565b92915050565b60008160008111610e045760405162461bcd60e51b815260040161037990611743565b6000610e0f84610ca3565b60008581526002602081905260408220015491925090610d019083611059565b336001600160a01b037f00000000000000000000000000000000000000000000000000000000000000001614610eb35760405162461bcd60e51b815260206004820152602360248201527f4f6e6c79206f776e65722063616e206368616e676520696e746572657374207260448201526261746560e81b6064820152608401610379565b6001805460ff191660ff92909216919091179055565b8160008111610eea5760405162461bcd60e51b815260040161037990611743565b600083815260026020526040902060060154839060ff168015610f1e57506000818152600260205260409020600401544211155b610f6a5760405162461bcd60e51b815260206004820152601d60248201527f4c6f616e206861732065787069726564206f72206265656e20706169640000006044820152606401610379565b6000848152600260205260409020546001600160a01b03163314610ff65760405162461bcd60e51b815260206004820152603c60248201527f4f6e6c7920746865206f776e6572206f66204e46542063616e20636c61696d2060448201527f706179206261636b206265666f72652074696d65206973206f766572000000006064820152608401610379565b6110008484611065565b3360009081526003602052604090205461101b906001611585565b3360009081526003602052604090205550505050565b80546001019055565b60006110468284611792565b9392505050565b600061104682846117b2565b6000611046828461177a565b81600081116110865760405162461bcd60e51b815260040161037990611743565b600061109184610de1565b9050808310156110f85760405162461bcd60e51b815260206004820152602c60248201527f5553444320616d6f756e74206973206c657373207468616e207072696369706160448201526b1b080ac81a5b9d195c995cdd60a21b6064820152608401610379565b604051636eb1769f60e11b815233600482015230602482015281907f00000000000000000000000000000000000000000000000000000000000000006001600160a01b03169063dd62ed3e9060440160206040518083038186803b15801561115f57600080fd5b505afa158015611173573d6000803e3d6000fd5b505050506040513d601f19601f8201168201806040525081019061119791906116be565b10156111de5760405162461bcd60e51b81526020600482015260166024820152751554d110c8185b1b1bddd85b98d9481b9bdd081cd95d60521b6044820152606401610379565b6040516323b872dd60e01b8152336004820152306024820152604481018290527f00000000000000000000000000000000000000000000000000000000000000006001600160a01b0316906323b872dd90606401602060405180830381600087803b15801561124c57600080fd5b505af1158015611260573d6000803e3d6000fd5b505050506040513d601f19601f820116820180604052508101906112849190611686565b5060408051338152602081018390527f5e0759665b3731a9a22c2126044d77b86883a8a55253ee38fe52f8786b809996910160405180910390a160006112ca8483611585565b905080156113fd5760405163a9059cbb60e01b8152336004820152602481018290526000907f00000000000000000000000000000000000000000000000000000000000000006001600160a01b03169063a9059cbb90604401602060405180830381600087803b15801561133d57600080fd5b505af1158015611351573d6000803e3d6000fd5b505050506040513d601f19601f820116820180604052508101906113759190611686565b9050806113be5760405162461bcd60e51b8152602060048201526017602482015276151c985b9cd9995c881bd9881554d110c819985a5b1959604a1b6044820152606401610379565b60408051338152602081018490527f73632a39d3953b96b68edbb7a446c9cc8e902735b884346ad17ace07b904334b910160405180910390a150611437565b60408051338152600060208201527f73632a39d3953b96b68edbb7a446c9cc8e902735b884346ad17ace07b904334b910160405180910390a15b6000858152600260205260409081902060010154905163095ea7b360e01b815233600482015260248101919091527f00000000000000000000000000000000000000000000000000000000000000006001600160a01b03169063095ea7b390604401600060405180830381600087803b1580156114b357600080fd5b505af11580156114c7573d6000803e3d6000fd5b505050600086815260026020526040908190206001015490516323b872dd60e01b815230600482015233602482015260448101919091527f00000000000000000000000000000000000000000000000000000000000000006001600160a01b031691506323b872dd90606401600060405180830381600087803b15801561154d57600080fd5b505af1158015611561573d6000803e3d6000fd5b50505060009586525050600260205250506040909120600601805460ff1916905550565b600061104682846117d1565b6000602082840312156115a2578081fd5b815161104681611837565b600080600080608085870312156115c2578283fd5b84356115cd81611837565b935060208501356115dd81611837565b925060408501359150606085013567ffffffffffffffff80821115611600578283fd5b818701915087601f830112611613578283fd5b81358181111561162557611625611821565b604051601f8201601f19908116603f0116810190838211818310171561164d5761164d611821565b816040528281528a6020848701011115611665578586fd5b82602086016020830137918201602001949094529598949750929550505050565b600060208284031215611697578081fd5b81518015158114611046578182fd5b6000602082840312156116b7578081fd5b5035919050565b6000602082840312156116cf578081fd5b5051919050565b600080604083850312156116e8578182fd5b50508035926020909101359150565b60008060006060848603121561170b578283fd5b505081359360208301359350604090920135919050565b600060208284031215611733578081fd5b813560ff81168114611046578182fd5b6020808252601b908201527f5472616e73616374696f6e204944206973206e6f742076616c69640000000000604082015260600190565b6000821982111561178d5761178d61180b565b500190565b6000826117ad57634e487b7160e01b81526012600452602481fd5b500490565b60008160001904831182151516156117cc576117cc61180b565b500290565b6000828210156117e3576117e361180b565b500390565b600060ff821660ff8416808210156118025761180261180b565b90039392505050565b634e487b7160e01b600052601160045260246000fd5b634e487b7160e01b600052604160045260246000fd5b6001600160a01b038116811461184c57600080fd5b5056fea2646970667358221220aa9c7881fd098615c84aec6c197993eecbd8ded5e43f21a61bd610cb626bf98364736f6c63430008040033",
  "linkReferences": {},
  "deployedLinkReferences": {}
}